:100000000C94E4100C9401110C9401110C94011146
:100010000C9401110C9401110C9401110C94CA164A
:100020000C9401110C9401110C9401110C94011108
:100030000C9401110C9401110C9401110C940111F8
:100040000C9401110C9401110C9401110C940111E8
:100050000C9401110C9401110C9401110C940111D8
:100060000C9401110C940111AA00000000FF000083
:10007000C6000000001C00008D00000000E200002F
:100080003800007100550000FF0000000071000002
:100090005500000000E200008D00000800AA38387A
:1000A000C6000038008D1C00FF00000000BF0000EB
:1000B0009F00000000DF00005F000000003F000024
:1000C0007F000000001F0000FF000000E5000000AE
:1000D000CC00CC0000004C00B20099003300B2000C
:1000E000B2007F0066333319000000000000001FDB
:1000F00000000000FF00001F000008000000BF9F7C
:100100007F5F5F00DF003F00FF00FF00CCCCCCCC66
:100110000000333333330000CC00CC009999999917
:100120009900000066666666FF0000002A00000075
:10013000D40000000800D400AA0000005500000010
:10014000D40008007F000800FF00550000000000F8
:10015000E20055000000C60000008D0038000000DD
:10016000AA001C000000710071003800FF000000B0
:1001700055003800E20000000000AA0000008D00D9
:100180001C001C00C6001C00FF000000DA0000007C
:100190009100000024000000DA00000024000000AC
:1001A000B600480000006D000000000008000000DC
:1001B000FF005500D4002A000000000008000000E5
:1001C0005500AA007F002A006D006D00FF000000AE
:1001D00048004800DA0000009100B600FF0000006F
:1001E00024002400DA000800FF0000007100000075
:1001F000C600380055001C00FF000000E2000000AF
:10020000AA0000008D0000000000000000000000B7
:10021000FF0091006D00DA002400B600480048009D
:10022000FF00000000006D00240024009100000089
:1002300048004800B600000048004800DA0000000E
:100240006D006D00FF000000FF0000000000DA00FC
:10025000B6000000000091009100240000006D0035
:100260006D00000048002400000000006D00080040
:1002700048000000FF00B6000000000091000800E8
:1002800024000800DA00B600FF0000000000E200D1
:10029000550000008D00000000000000AA0038009A
:1002A000C600000071001C00FF0008001C001C00BC
:1002B000C600380038005500FF005500710071007D
:1002C000E2008D00AA008D00000000000000000088
:1002D000FF0000007F0000000000000000000000A0
:1002E0003F000000BF000000FF000000FF007F0093
:1002F000000055000000D4000000D4002A00AA002D
:1003000000007F0000000000FF0000000800000067
:10031000B600000048000000DA00000024000000E1
:10032000910000006D000000000033194C19190005
:10033000990000007F66B200CC0000000000FF00C2
:1003400000006600E5004C00710000008D005500C3
:1003500000000000AA000000381CFF0000000000A0
:10036000C6000000E2000000FF00000000005F0087
:1003700000007F0000000000DF005F003F001F0062
:10038000BF0000009F00000000001F00FF000000F1
:1003900000005F00DF00000000003F00BF00000021
:1003A000000000009F007F008D001C001C001C004E
:1003B0007100080008000800FF000000E2000000D3
:1003C000C6003800AA005500FF0000000000000031
:1003D00024000000B6000000DA0000000000000069
:1003E0004800000091006D0024002400000000007F
:1003F000FF000000B6000000000000000000006DDB
:10040000DA00000091004848FF001C00E2003800BC
:10041000C600000000001C1CAA0000008D000000A7
:100420007100000055555555FF00000033000000D5
:100430000000000066000000CC00000099000000F1
:10044000000000003300000000000000080024004D
:10045000FF000000B60008000000000048006D002A
:1004600091000000FF00DA00D4000800AA0000009C
:100470007F00000055000800FF000800AA000000EF
:100480007F0000002A000800FF00000000003F007D
:10049000BF005F001F00DF00FF003F005F003F0064
:1004A0009F00000000007F004800000000000000E6
:1004B000FF00000000000000480048002400080081
:1004C000DA00B60091006D00FF00A200E700A20074
:1004D000E7007300D0008B00B9005C00B9002E006B
:1004E000A2004500A2001700FF000000FF00BF00AF
:1004F000000000005F003F001F000000DF00DF0081
:10050000000008009F007F000000550038001C001C
:10051000FF001C000000E2000000AA00380071008B
:10052000C600000071008D00FF002A00E9003F00B6
:10053000D4005500BF006A00BF001500AA000800E3
:10054000AA007F0094009400FF000000000000005B
:100550000000000000000000FF000000DA00482456
:100560000000B6000000916D00007F0000002A002E
:10057000D40000D40000D400000000002A000000D5
:10058000FF000000AAAA7F5591006D6DDA6D48004A
:1005900091004800DA006D00B6006D00FF004800D1
:1005A000B66D246DFF6D6D009100000000006D00C0
:1005B00000000000FF006D004800DA0000000000AD
:1005C00024000000B600000000007F009F007F00B4
:1005D0009F00BF00DF003F00FF005F001F005F00C3
:1005E0001F0008003F000800FF000000910000000D
:1005F000B6006D006D006D00DA00000048000000DC
:10060000B6004800B6002400E2001C001C008D006B
:1006100008000800FF00080071001C00C60055001B
:100620003800C600AA001C0008005F00080008008F
:10063000FF003F001F00DF0008001F00BF00080090
:10064000FF007F007F009F0073002E00FF00B900B5
:100650008B001700D0007300E7004500FF00A200E8
:100660008B007300E7005C00FF000000DA00000070
:1006700024000000DA000000B6006D00FF0000005A
:1006800000000000910048009F0000001F007F0054
:10069000FF001F0000005F0008000000BF001F00F7
:1006A000FF001F00DF003F00FF001F003F001F0092
:1006B0005F001F003F007F009F001F003F001F00E2
:1006C000DF00DF00BF00BF00DF0000003F000000D0
:1006D0005F000000DF001F00FF0000009F0000001F
:1006E0007F001F00BF001F00000000006D00000021
:1006F000DA000000B6004800080024009100240041
:10070000FF000800B6004800FF004800DA0024009F
:10071000DA00000091000000FF002400B600240071
:10072000B60000006D000000FF000000DF000000C8
:100730001F0008007F0000005F0000009F00000015
:100740005F003F00BF0000003300CC0000006600E7
:10075000FF007F000800B2001900E50000004C0017
:10076000CC00990033001900FF00E200FF00FF00F9
:10077000C6001C008D003800AA00380055001C007F
:10078000AA001C0071003800FF00330019004C0063
:100790000000000066000000CC00E5000000B20090
:1007A000000099007F000800B2007F009900CC0093
:1007B000FF00000019004C0066003300000000003C
:1007C000E50019001900CC00B2006600FF004C00E3
:1007D0007F004C00E5004C0099006600FF00190006
:1007E0007F003300CC003300FF001F003F003F00BC
:1007F0007F005F00BF003F00DF001F009F003F0041
:100800001F003F005F001F00080000005F003F0066
:10081000FF0000007F000000080000009F003F0074
:10082000FF00DF00BF001F004C001900FF007F0029
:1008300099003300CC0066004C003300E5007F00D7
:1008400099003300B2006600FF00D4003F000000B2
:100850006A00940055007F00BF001500E900000009
:100860001500AA0000002A00000000008D007100A1
:10087000FF00C600000038000000550038001C00D2
:10088000E2001C00AA003800FF00E700FF00D000D3
:100890008B005C0073005C00B90045002E002E0048
:1008A000A2001700D0002E00FF0000007F00000013
:1008B000000066000000E5000000B200CC0000006F
:1008C0004C0033009900190000007F000000000078
:1008D000FF00BF001F003F0000005F00000000009D
:1008E000DF0000001F009F00FF005500940055002E
:1008F0007F0055006A003F00D400AA00BF00AA0094
:1009000055002A00E9001500E500190066001900ED
:10091000CC0019004C000800FF000800330019004B
:10092000B200190099007F001C00C6003800380092
:10093000E2001C008D001C001C00AA001C001C0012
:10094000FF007100550055009F009F00FF003F0011
:100950009F009F00BF001F009F007F00FF001F003F
:100960009F007F00DF005F00FF000000000091009B
:1009700000000000DA00000048002400B60000007B
:100980006D0000004800000024006D000000080019
:10099000FF000000000048000000B6000000240036
:1009A000DA00000091000000AA007100FF0038008A
:1009B000AA008D00C6003800AA007100E2001C00E9
:1009C000AA007100C600550000000000CF8B000097
:1009D0009E1701006EA301003D2F02000CBB020018
:1009E000DC460300ABD203007B5E04004AEA04004D
:1009F00019760500E9010600B88D06008819070080
:100A000057A5070026310800F6BC0800C5480900B4
:100A100095D4090064600A0033EC0A0003780B00E7
:100A2000D2030C00A28F0C00711B0D0040A70D001B
:100A300010330E00DFBE0E00AF4A0F007ED60F004F
:100A40004D6210001DEE1000EC791100BC05120083
:100A50008B9112005A1D13002AA91300F9341400B7
:100A6000C8C01400984C150067D8150037641600EC
:100A700006F01600D57B1700A50718007493180020
:100A8000441F190013AB1900E2361A00B2C21A0053
:100A9000814E1B0051DA1B0020661C00EFF11C0088
:100AA000BF7D1D008E091E005E951E002D211F00BA
:100AB000FCAC1F00CC3820009BC420006B502100F0
:100AC0003ADC210009682200D9F32200A87F230024
:100AD000780B24004797240016232500E6AE250056
:100AE000B53A260084C626005452270023DE27008C
:100AF000F3692800C2F5280091812900610D2A00C0
:100B000030992A0000252B00CFB02B009E3C2C00F2
:100B10006EC82C003D542D000DE02D00DC6B2E0026
:100B2000ABF72E007B832F004A0F30001A9B30005A
:100B3000E9263100B8B23100883E320057CA32008F
:100B400027563300F6E13300C56D340095F93400C3
:100B50006485350034113600039D3600D2283700F5
:100B6000A2B437007140380040CC3800105839002A
:100B7000DFE33900AF6F3A007EFB3A004D873B0060
:100B80001D133C00EC9E3C00BC2A3D008BB63D0092
:100B90005A423E002ACE3E00F9593F00C9E53F00C7
:100BA0009871400067FD40003789410006154200FA
:100BB000D6A04200A52C430074B84300444444002E
:100BC00013D04400E35B4500B2E745008173460063
:100BD00051FF4600208B4700F0164800BFA2480096
:100BE0008E2E49005EBA49002D464A00FCD14A00CB
:100BF000CC5D4B009BE94B006B754C003A014D00FE
:100C0000098D4D00D9184E00A8A44E0078304F0031
:100C100047BC4F0016485000E6D35000B55F510066
:100C200085EB51005477520023035300F38E530099
:100C3000C21A540092A654006132550030BE5500CD
:100C4000004A5600CFD556009F6157006EED570001
:100C50003D7958000D055900DC905900AC1C5A0034
:100C60007BA85A004A345B001AC05B00E94B5C0069
:100C7000B9D75C0088635D0057EF5D00277B5E009D
:100C8000F6065F00C5925F00951E600064AA6000D2
:100C90003436610003C26100D24D6200A2D9620005
:100CA0007165630041F16300107D6400DF08650039
:100CB000AF9465007E2066004EAC66001D3867006C
:100CC000ECC36700BC4F68008BDB68005B676900A2
:100CD0002AF36900F97E6A00C90A6B0098966B00D6
:100CE00068226C0037AE6C00063A6D00D6C56D0008
:100CF000A5516E0075DD6E0044696F0013F56F003D
:100D0000E3807000B20C7100819871005124720070
:100D100020B07200F03B7300BFC773008E537400A5
:100D20005EDF74002D6B7500FDF67500CC827600D9
:100D30009B0E77006B9A77003A2678000AB278000B
:100D4000D93D7900A8C9790078557A0047E17A0041
:100D5000176D7B00E6F87B00B5847C0085107D0074
:100D6000549C7D0024287E00F3B37E00C23F7F00A8
:100D700092CB7F006157800031E38000006F8100DB
:100D8000CFFA81009F8682006E1283003D9E830011
:100D90000D2A8400DCB58400AC4185007BCD850044
:100DA0004A5986001AE58600E9708700B9FC870079
:100DB000888888005714890027A08900F62B8A00AC
:100DC000C6B78A0095438B0064CF8B00345B8C00E0
:100DD00003E78C00D3728D00A2FE8D00718A8E0015
:100DE00041168F0010A28F00E02D9000AFB9900047
:100DF0007E4591004ED191001D5D9200EDE892007C
:100E0000BC7493008B0094005B8C94002A189500AE
:100E1000F9A39500C92F960098BB960068479700E4
:100E200037D39700065F9800D6EA9800A576990018
:100E300075029A00448E9A00131A9B00E3A59B004A
:100E4000B2319C0082BD9C0051499D0020D59D007F
:100E5000F0609E00BFEC9E008F789F005E04A000B3
:100E60002D90A000FD1BA100CCA7A1009C33A200E7
:100E70006BBFA2003A4BA3000AD7A300D962A4001B
:100E8000A9EEA400787AA5004706A6001792A6004E
:100E9000E61DA700B5A9A7008535A80054C1A80084
:100EA000244DA900F3D8A900C264AA0092F0AA00B8
:100EB000617CAB003108AC000094AC00CF1FAD00EA
:100EC0009FABAD006E37AE003EC3AE000D4FAF001E
:100ED000DCDAAF00AC66B0007BF2B0004B7EB10054
:100EE0001A0AB200E995B200B921B30088ADB30087
:100EF0005839B40027C5B400F650B500C6DCB500BB
:100F00009568B60065F4B6003480B700030CB800ED
:100F1000D397B800A223B90072AFB900413BBA0021
:100F200010C7BA00E052BB00AFDEBB007E6ABC0057
:100F30004EF6BC001D82BD00ED0DBE00BC99BE008A
:100F40008B25BF005BB1BF002A3DC000FAC8C000BE
:100F5000C954C10098E0C100686CC20037F8C200F3
:100F60000784C300D60FC400A59BC4007527C50025
:100F700044B3C500143FC600E3CAC600B256C7005A
:100F800082E2C700516EC80021FAC800F085C9008E
:100F9000BF11CA008F9DCA005E29CB002EB5CB00C1
:100FA000FD40CC00CCCCCC009C58CD006BE4CD00F7
:100FB0003A70CE000AFCCE00D987CF00A913D0002A
:100FC000789FD000472BD10017B7D100E642D2005E
:100FD000B6CED200855AD30054E6D3002472D40092
:100FE000F3FDD400C389D5009215D60061A1D600C7
:100FF000312DD70000B9D700D044D8009FD0D800F9
:101000006E5CD9003EE8D9000D74DA00DDFFDA002D
:10101000AC8BDB007B17DC004BA3DC001A2FDD0060
:10102000EABADD00B946DE0088D2DE00585EDF0095
:1010300027EADF00F675E000C601E100958DE100CA
:101040006519E20034A5E2000331E300D3BCE300FC
:10105000A248E40072D4E4004160E50010ECE50031
:10106000E077E600AF03E7007F8FE7004E1BE80064
:101070001DA7E800ED32E900BCBEE9008C4AEA0099
:101080005BD6EA002A62EB00FAEDEB00C979EC00CE
:101090009905ED006891ED00371DEE0007A9EE00FF
:1010A000D634EF00A6C0EF00754CF00044D8F00035
:1010B0001464F100E3EFF100B27BF2008207F30069
:1010C0005193F300211FF400F0AAF400BF36F5009D
:1010D0008FC2F5005E4EF6002EDAF600FD65F700D1
:1010E000CCF1F7009C7DF8006B09F9003B95F90005
:1010F0000A21FA00D9ACFA00A938FB0078C4FB0039
:101100004850FC0017DCFC00E667FD00B6F3FD006C
:10111000857FFE00550BFF002497FF00F32200019E
:10112000C3AE0001923A010162C6010131520201CF
:1011300000DE0201D06903019FF503016F81040104
:101140003E0D05010D990501DD240601ACB0060137
:101150007B3C07014BC807011A540801EADF08016C
:10116000B96B090188F7090158830A01270F0B01A0
:10117000F79A0B01C6260C0195B20C01653E0D01D4
:1011800034CA0D0104560E01D3E10E01A26D0F0108
:1011900072F90F014185100111111101E09C11013B
:1011A000AF2812017FB412014E4013011ECC13016F
:1011B000ED571401BCE314018C6F15015BFB1501A5
:1011C0002B871601FA121701000000000000000032
:1011D000000000000000000000000000000000000F
:1011E00000000000000000000000000000000000FF
:1011F00000000000000000000000000000000000EF
:1012000000000000000000000100000001000000DC
:1012100001000000010000000100000001000000CA
:1012200001000000010000000100000001000000BA
:1012300001000000010000000100000001000000AA
:10124000010000000100000000000000000000009C
:10125000000000000000000000000000000000008E
:10126000000000000000000001000000010000007C
:10127000010000000100000001000000010000006A
:10128000010000000100000001000000010000005A
:10129000010000000100000001000000010000004A
:1012A0000100000001000000030000000300000036
:1012B0000300000003000000030000000300000022
:1012C0000300000003000000000000000000000018
:1012D000000000000000000000000000000000000E
:1012E00001000000010000000100000001000000FA
:1012F00001000000010000000100000001000000EA
:1013000001000000010000000500000005000000D1
:1013100005000000050000000500000005000000B9
:1013200005000000050000000500000005000000A9
:101330000700000007000000070000000700000091
:10134000070000000700000000000000000000008F
:10135000000000000000000001000000010000008B
:101360000100000001000000010000000100000079
:101370000100000001000000050000000500000061
:101380000500000005000000050000000500000049
:1013900005000000050000000D0000000D00000029
:1013A0000D0000000D0000000D0000000D00000009
:1013B0000D0000000D0000000F0000000F000000F5
:1013C0000F0000000F0000000000000000000000FF
:1013D000000000000000000001000000010000000B
:1013E00001000000010000000100000001000000F9
:1013F00009000000090000000900000009000000C9
:1014000009000000090000000D0000000D000000B0
:101410000D0000000D0000000D0000000D00000098
:101420001D0000001D0000001D0000001D00000048
:101430001D0000001D0000001F0000001F00000034
:101440001F0000001F00000000000000000000005E
:101450000000000001000000010000000100000089
:101460000100000001000000090000000900000068
:10147000090000000900000009000000150000003C
:101480001500000015000000150000001500000008
:10149000150000002D0000002D0000002D000000B0
:1014A0002D0000002D0000003D0000003D00000068
:1014B0003D0000003D0000003D0000003F00000036
:1014C0003F0000003F00000000000000000000009E
:1014D0000000000001000000010000000100000009
:1014E00001000000110000001100000011000000C8
:1014F0001100000011000000290000002900000078
:1015000029000000290000002D0000002D0000002F
:101510002D0000002D0000005D0000005D000000B7
:101520005D0000005D0000005D0000007D00000027
:101530007D0000007D0000007D0000007F000000B5
:101540007F0000007F00000000000000000000009D
:101550000100000001000000010000000100000087
:101560001100000011000000110000001100000037
:1015700029000000290000002900000029000000C7
:101580005500000055000000550000005500000007
:10159000AD000000AD000000AD000000AD00000097
:1015A000DD000000DD000000DD000000DD000000C7
:1015B000FD000000FD000000FD000000FD00000037
:1015C000FF000000FF00000000000000000000001D
:1015D0000100000001000000010000000100000007
:1015E000210000002100000021000000490000004F
:1015F000490000004900000049000000A900000067
:10160000A9000000A9000000AD000000AD0000002E
:10161000AD0000006D0100006D0100006D010000D3
:101620006D010000BD010000BD010000BD01000012
:10163000FD010000FD010000FD010000FD010000B2
:10164000FF010000FF01000000000000000000009A
:101650000100000001000000010000002100000066
:101660002100000021000000910000009100000016
:10167000910000002901000029010000290100005B
:101680005501000055010000550100005501000002
:10169000AD010000AD010000AD010000DD02000061
:1016A000DD020000DD020000BD030000BD030000FC
:1016B000BD030000FD030000FD030000FD0300006A
:1016C000FF030000FF030000000000000000000016
:1016D00001000000010000000100000041000000C6
:1016E0004100000041000000910000009100000056
:1016F000290100002901000029010000A9020000C1
:10170000A9020000A9020000AD020000AD02000025
:10171000AD020000AD050000AD050000AD05000004
:10172000DD060000DD0600007D0700007D070000EB
:101730007D070000FD070000FD070000FD07000019
:10174000FF070000FF07000000000000000000008D
:101750000100000001000000410000004100000005
:101760004100000011010000110100001101000002
:101770004902000049020000A9040000A904000079
:10178000A90400005505000055050000AD06000045
:10179000AD060000AD0600006D0B00006D0B0000F3
:1017A000DD0D0000DD0D0000DD0D00007D0F0000EF
:1017B0007D0F00007D0F0000FD0F0000FD0F0000F9
:1017C000FF0F0000FF0F00000000000000000000FD
:1017D0000100000001000000810000008100000005
:1017E00021020000210200002102000091040000FB
:1017F00091040000290900002909000029090000BE
:10180000A90A0000A90A0000AD0A0000AD0A000004
:10181000AD0D0000AD0D0000AD0D0000DD160000A7
:10182000DD160000BD1B0000BD1B0000BD1B00003D
:10183000FD1E0000FD1E0000FD1F0000FD1F00003A
:10184000FF1F0000FF1F000000000000000000005C
:101850000100000001000000810000008100000084
:101860002102000021020000910800009108000000
:10187000290900002909000029090000A914000015
:10188000A91400005515000055150000AD16000004
:10189000AD160000AD2D0000AD2D0000AD2D0000F7
:1018A000DD2E0000DD2E0000BD3B0000BD3B000032
:1018B000FD3E0000FD3E0000FD3F0000FD3F00003A
:1018C000FF3F0000FF3F000000000000000000009C
:1018D0000100000001000000010100000101000002
:1018E000210400002104000091080000910800007C
:1018F0004912000049120000292500002925000096
:10190000A92A0000A92A0000AD2A0000AD2A000083
:10191000AD350000AD3500006D5B00006D5B000073
:10192000DD6E0000DD6E0000BD770000BD770000B9
:10193000FD7D0000FD7D0000FD7F0000FD7F0000BB
:10194000FF7F0000FF7F000000000000010000009A
:101950000100000001010000010100004108000039
:101960004108000011110000111100009124000035
:10197000912400002929000029290000A952000013
:10198000A95200005555000055550000AD5A000001
:10199000AD5A0000ADAD0000ADAD0000DDB60000F9
:1019A000DDB60000DDDD0000DDDD00007DEF0000C4
:1019B0007DEF0000FDFD0000FDFD0000FDFF0000CB
:1019C000FDFF0000FFFF000000000000010000001C
:1019D00001000000010200000102000041080000B7
:1019E0004108000021220000212200009144000053
:1019F0009144000029490000A9940000A994000026
:101A0000A9AA0000A9AA0000ADAA0000ADAA000082
:101A1000ADD60000ADD60000AD6D0100DD76010051
:101A2000DD760100BDBB0100BDBB01007DEF010003
:101A30007DEF0100FDFB0100FDFB0100FDFF01004A
:101A4000FDFF0100FFFF0100000000000100000099
:101A5000010000000102000001020000411000002E
:101A60004110000021420000918800009188000090
:101A7000499200004992000029290100A952010061
:101A8000A95201005555010055550100AD5A0100FC
:101A9000AD5A0100ADAD01006DDB02006DDB02004F
:101AA000DDEE0200DDEE0200BD7B03007DDF030002
:101AB0007DDF0300FDFB0300FDFB0300FDFF0300D2
:101AC000FDFF0300FFFF0300000000000100000015
:101AD000010000000104000001040000812000005A
:101AE0002142000021420000918800009124010061
:101AF000912401002949010029490100A99402000B
:101B0000A9AA0200A9AA0200ADAA0200ADAA020079
:101B1000ADD60200AD6D0500AD6D0500DDB605006A
:101B2000DDB60500DDEE0600BD7B0700BD7B0700CE
:101B3000FDBE0700FDF70700FDF70700FDFF0700EA
:101B4000FDFF0700FFFF070000000000010000008C
:101B5000010000000104000081200000812000003D
:101B600021840000111101001111010091440200B3
:101B7000914402002949020029A5040029A5040076
:101B8000A94A05005555050055550500AD6A0500E3
:101B9000ADB50600ADB50600AD6D0B00DD760B00F2
:101BA000DD760B00DDDD0D00DDDD0D00BDF70E0087
:101BB000FDBE0F00FDBE0F00FDF70F00FDFF0F0083
:101BC000FDFF0F00FFFF0F000000000001000000FC
:101BD0000100000001080000814000008140000079
:101BE0004108010021220200212202009148040044
:101BF000499204004992040029290500A9540A00C9
:101C0000A9540A00A9AA0A00ADAA0A00AD560B0001
:101C1000AD560B00ADAD15006DDB16006DDB16008B
:101C2000DD6E1700BDBB1B00BDBB1B007DEF1D00A3
:101C3000FD7E1F00FD7E1F00FDEF1F00FDFF1F004A
:101C4000FDFF1F00FFFF1F0000000000010000005B
:101C500001000000010800000181000041080200AD
:101C600041080200212204009188040091880400A8
:101C70009124090029490900A9941200A99412008D
:101C8000A94A15005555150055551500AD6A1500A2
:101C9000ADD61A00ADD61A00AD6D2D00DDB62D0003
:101CA000DDEE3600DDEE3600BDBB37007DEF3B00DC
:101CB0007DEF3B00FDFD3E00FDEF3F00FDFF3F00DF
:101CC000FDFF3F00FFFF3F0000000000010000009B
:101CD0000100000001100000018100004108020025
:101CE0004108020021420800918808009124120056
:101CF000912412002949120029292500A9522900FE
:101D0000A9522900A9AA2A00ADAA2A00AD5A2D007D
:101D1000AD5A2D00ADAD3500AD6D5B00DDB65B009D
:101D2000DDB65B00DDEE6E00BD7B6F007DEF7B00FE
:101D30007DEF7B00FDFD7E00FDDF7F00FDFF7F006E
:101D4000FDFF7F00FFFF7F0000000000010000009A
:101D50000110000001100000010101004110040009
:101D60002142080021420800111111009144220073
:101D7000499224002929290029292900A9944A00E7
:101D8000A92A55005555550055555500ADAA550081
:101D9000ADD66A00ADADAD00ADADAD006DDBB6004A
:101DA000DD76BB00DDDDDD00BD7BEF00BD7BEF0040
:101DB0007DDFF700FDFDFD00FDDFFF00FDDFFF0023
:101DC000FDFFFF00FFFFFF0000000000010000001A
:101DD0000120000001200000010202008120080013
:101DE0002184100021222200212222009188440017
:101DF0009124490029494A0029A5940029A5940065
:101E0000A952A900A9AAAA00ADAAAA00AD5AAD007C
:101E1000ADB5D600ADB5D600AD6D6B01DDB66D01CB
:101E2000DDEE7601BDBBBB01BDBBBB01BDF7DE0175
:101E3000FDBEEF01FDFBFB01FDBFFF01FDBFFF018B
:101E4000FDFFFF01FFFFFF01000000000100000097
:101E500001200000010202000102020081201000A6
:101E600041082100212244009188480091249200D9
:101E7000912492002949920029292501A9944A0117
:101E8000A92A55015555550155555501ADAA55017C
:101E9000ADD66A01ADADB501AD6DDB02DDB6DB02DD
:101EA000DDB6DB02DDEE6E03BDBB77037DEFBD0368
:101EB000FDBEDF03FDFBFB03FDFBFB03FDBFFF03DB
:101EC000FDFFFF03FFFFFF03000000000100000013
:101ED0000140000001020400010204008120100002
:101EE00041084100214284009188880091442201E8
:101EF000499224012949490129494901A9945202D9
:101F0000A952A502A9AAAA02ADAAAA02AD5AB5026F
:101F1000ADD65A03AD6D6D05AD6D6D056DDBB605C6
:101F2000DD76BB05DDEEEE06BD7BF7067DEF7D07BA
:101F3000FDBEDF07FDFBF707FDFBF707FD7FFF0792
:101F4000FDFFFF07FFFFFF0700000000010000008A
:101F50000140000001040800814020004108820087
:101F60004108820021428800111111019148240288
:101F70009124490229494A022929A504A9542A057C
:101F8000A9AA54055555550555555505ADAA5605EB
:101F9000AD56AB05ADADB506AD6D6B0BDDB66D0BDE
:101FA000DD6EB70BDDDDDD0DBD7BEF0E7DEFFB0ED6
:101FB0007DEFFB0EFD7EBF0FFDF7EF0FFD7FFF0FE7
:101FC000FDFFFF0FFFFFFF0F0000000001000000FA
:101FD00001800000010408000181400041088200E6
:101FE0002142080121222202212222029188440258
:101FF000912491042949920429292505A99452097B
:10200000A94A950AA9AAAA0AADAAAA0AAD6AD50A36
:10201000ADD65A0DADADB515AD6DDB16DDB6DD1621
:10202000DDEE761BBDBBBB1BBDBBBB1BBD7BEF1D74
:102030007DEFFB1EFDFD7E1FFDF7EF1FFDFFFE1F69
:10204000FDFFFF1FFFFFFF1F000000000100000059
:102050000180000001041000018180004110040192
:1020600021841002212242049188480491441209DB
:10207000499224092949490929A59412A952A91468
:10208000A9AA54155555551555555515ADAA5615AA
:10209000AD5AAD16ADB5D61AAD6D6D2D6DDBB62D45
:1020A000DD76DB2DDDEE6E37BDBB7B37BDF7DE3B6E
:1020B0007DDFF73DFDFDFE3EFDF7DF3FFDFFFE3F0F
:1020C000FDFFFF3FFFFFFF3F000000000100000099
:1020D0000100010001082000018180008120080228
:1020E0004108210421224408918888089144221142
:1020F00091244912294952122929A524A9944A2533
:10210000A94A952AA9AAAA2AADAAAA2AAD6AD52AB5
:10211000ADD66A35ADADB536AD6D5B5BDDB66D5B2D
:10212000DD76BB5DDDEEEE6EBDBB776F7DEFBD771F
:10213000FDBEEF7BFDFDFE7EFDEFBF7FFDFFFD7F62
:10214000FDFFFF7FFFFFFF7F000000000100000098
:1021500001000100010820000101010181200804A3
:10216000410841082142881011111111918844221F
:10217000912491242949922429292929A994524A50
:10218000A952A952A9AA5255ADAA5A55AD5AAD5A4B
:10219000ADD65A6BADADADADAD6DDBB6DDB6DDB672
:1021A000DDEE76BBDDDDDDDDBD7BEFDE7DEF7DEFE2
:1021B000FDBEEFF7FDFDFDFDFDEFBFFFFDFFFDFFE8
:1021C000FDFFFFFFFFFFFFFF11241FBECFEFD8E091
:1021D000DEBFCDBF11E0A0E0B1E0E2EFF3E302C06B
:1021E00005900D92AE39B107D9F722E0AEE9B1E022
:1021F00001C01D92AD33B207E1F70E9459160C944D
:102200005E190C940000FC019093BA018093B9010F
:10221000EE0FFF1FEE0FFF1FE853F64F259135918C
:102220004591549161110DC0569547953795279565
:102230002093B1013093B2014093B3015093B401A4
:1022400008956230A9F7A3E0B0E00E948919609375
:10225000B1017093B2018093B3019093B4010895DA
:1022600080917A0086FDFCCF8091AF0120917800AB
:1022700090917900E82FF0E0EE0FFF1FE256FE4F3D
:10228000392F318320838F5F8093AF019091AE010E
:10229000891710F01092AF018091AF018770909173
:1022A0000001892B80937C0080917A008064809368
:1022B0007A0008951092350210923602E0E3F2E0BF
:1022C00083E0DF011D928A95E9F70895CF93C82F27
:1022D0000E94201990913502292F277081E009F082
:1022E00080E08093330281E0911180E0809334029A
:1022F000809136028C0F4091300230913102209152
:102300003202833040F0835090FD03C04F5F3F5F47
:102310002F5F9F5FF6CF80933602909335024093F4
:1023200030023093310220933202903218F09052F2
:1023300090933502CF9108952091DE0130E02F5F18
:102340003F4F2F7333279091DD01921741F0E091B9
:10235000DE01F0E0E152FE4F80832093DE0108951C
:10236000CF93DF93D62FC42F0E949C118D2F0E94F4
:102370009C118C2F0E949C11DF91CF910895809128
:10238000D50181112BC08091D701882339F081506C
:102390008093D701811102C01092D8018091D2019F
:1023A000882331F08091D8019EE089278093D8015D
:1023B0008091D80190913A02992369F0909133026B
:1023C000911181602BB130E1839FC00111242F70E6
:1023D000822B8BB9089590913402F2CFE091D50110
:1023E000E250E73098F4F0E0EE50F64E0C9483198A
:1023F0002091370288E090E002C0959587952A9554
:10240000E2F7DFCF80913902811109C081E0DACF94
:1024100080913C02F9CF809138028130B9F78FE08A
:10242000D1CF80913A02F0CF80913B02EDCF8091E5
:102430001F02882331F0813031F0823039F783E098
:10244000C1CF89E0BFCF85E0BDCFCF93DF93D62F3B
:10245000C42F60FF0AC08091270244E6813C08F047
:102460004FE764E289E90E94B011D1FF0AC0809170
:10247000280244E6813C08F04FE765E289E90E94C2
:10248000B011D2FF0BC0809129024FE768E2813C76
:1024900010F444E667E289E90E94B01180913B02A2
:1024A0008823D1F0C0FF05C040E064E289E80E94C3
:1024B000B011C1FF05C040E065E289E80E94B0119B
:1024C000C2FF0AC040E067E289E80E94B01140E024
:1024D00068E289E80E94B011DF91CF910895CF9210
:1024E000DF92EF92FF921F93CF93DF93D9B1DF700A
:1024F000D0951D2F1D7FE0913702F0E08091D10132
:102500002091B9013091BA0128323105C0F490917F
:10251000BB01911114C0882309F482C08091C000CE
:1025200087FF0BC08091C600883F09F07FC0C1E0E3
:102530008091D301813009F44FC0C0E04DC0EB5F02
:10254000FE4FC081811181C08091D301882331F079
:102550001092D3011092D2010E945A11C090B10181
:10256000D090B201E090B301F090B4014091B50178
:102570005091B6016091B7017091B8014C0D5D1D8D
:102580006E1D7F1D4093B5015093B6016093B70156
:102590007093B8018091D60181115EC0872F8F772B
:1025A0008093B80180E48093B0018091B50190914F
:1025B000B601A091B701B091B8018C159D05AE058B
:1025C000BF0508F0C0E02091B001B21728F080915B
:1025D0003B02811110922F02D4708091D301882385
:1025E00009F44BC08091D0018470DD2309F462C0EE
:1025F000811103C081E08093D2011093D001CC23DC
:1026000039F00E9448198093D6018C2F0E946611E0
:10261000DF91CF911F91FF90EF90DF90CF900895C1
:1026200081E08093D1018093D20178CF8A3F31F449
:102630000E945A1181E08093D3017FCF8B3FD1F369
:102640008C3F09F07ACF82E0F6CF1092D101109240
:10265000D2011092D80178CF082E000C990B9C0162
:1026600021583F4F7217130619F014F01092B80159
:1026700080589F4F9595879596CFDD2309F4BDCF60
:102680008091D00182FDB9CF0E945A118091B90189
:102690009091BA01889728F48091BB01882309F4AE
:1026A000ACCF1092B5011092B6011092B701109202
:1026B000B801A3CF882309F4A0CF1092D2011092C1
:1026C000D8019BCFA4E0B0E0E8E6F3E10C94A419B4
:1026D00080910401880F809304014B9B03C08160AB
:1026E00080930401809104018E3F09F080C08091A5
:1026F000D50181110CC08091D3018823A1F0809174
:10270000D201882361F01092D2011092D801109268
:10271000CF011092CE012496E2E00C94C01981E022
:102720008093D201F4CF8091D101813039F410929D
:10273000D2011092D80182E08093D10180913A02B7
:10274000811115C00E945A118091B9019091BA016E
:10275000889720F48091BB018823C9F21092B501BB
:102760001092B6011092B7011092B801D0CF20910B
:10277000D9013091DA014091DB015091DC01A0ECEC
:10278000B9E00E94891969837A838B839C8360E016
:102790007CE886E897E429813A814B815C810E943C
:1027A0006119DA01C9014E97A109B109833C914031
:1027B000A105B105C8F460913702C9010E94031157
:1027C0001092B5011092B6011092B7011092B801A3
:1027D00081E08093BB011092D9011092DA0110922E
:1027E000DB011092DC0193CF1092BB01F4CF811179
:1027F00092CF8091CE019091CF0101969093CF011D
:102800008093CE01843F914009F085CF81E0809391
:10281000D40181CFB0E0A0E0E0E1F4E10C949E1996
:102820008091D4018823E9F08091D50181116DC098
:10283000EEE9F1E0ADEBB1E08EEA91E02181329674
:102840002C9311961C92119712968E179F07B1F731
:102850008091AB018093030188E08093D5011092B1
:10286000D4018091D501811158C02091AB01809194
:10287000BC01882391F0822F90E04091030150E049
:10288000BC01641B750B77FF03C0BA01681B790B91
:1028900063307105BCF41092BC013CED239F812D87
:1028A00011248C5E90E02091B9013091BA01821719
:1028B000930741F02091BB01211104C060913702C0
:1028C0000E94031180919F01809580932102809145
:1028D000A1018095809322028091A301809580932D
:1028E00023028091A5018095809324028091A70105
:1028F0008095809325028091A9018095809326027E
:10290000CDB7DEB7E8E00C94BA1981E08093BC0142
:102910001092D5010E94ED18A2CF8091D501883088
:1029200009F0AFC09091AB019093C9011092CA0118
:1029300082E09B3A20F481E0963508F480E08093B1
:102940001F02AEE9B1E0EDEBF1E090E080E0282F6E
:10295000863009F48EC011963C911197C32F30E058
:10296000D32F60817181AE01461B570B57FF03C007
:10297000AB014C1B5D0B413251050CF47AC0880F42
:10298000991FFC01E354FE4FD183C083233051F1E2
:10299000B0F4213009F451C0223009F45CC0211197
:1029A000AFCF86E08093D501CC0FCD2FCC1FDD0BB0
:1029B000D195F1E0CF27C170C0933802A1CF243068
:1029C00059F1253009F09CCF84E08093D501CC0FDC
:1029D000CD2FCC1FDD0BD195E1E0CE27C170C09388
:1029E0003C028ECF82E08093D5016FEF70E06C1BCC
:1029F0007D0B36E0759567953A95E1F7633008F001
:102A000062E0609337028091B9019091BA010E940F
:102A100003110E945A1174CF83E08093D50181E0A5
:102A20009E0120783327C7FD80E080933A02232B54
:102A300009F466CF1092BB0163CF85E08093D50186
:102A4000CC0FCD2FCC1FDD0BD19521E0C227C1705B
:102A5000C0933B0255CF87E08093D501CC0FCD2F9B
:102A6000CC1FDD0BD19531E0C327C170C093390273
:102A700047CF0196129632968830910509F067CFBC
:102A80003FCFFEE9CF2EF1E0DF2EADEBEA2EA1E045
:102A9000FA2EC0E0F6018181F2E0CF0ED11C082FA2
:102AA00010E0F701219131917F01C801821B930B46
:102AB00097FF03C0C901801B910B819784F0F70138
:102AC000329711830083C33009F168F4C13009F4EF
:102AD00056C0C23009F462C0CC2309F441C0CF5FB4
:102AE000C830C1F60DCFC43059F1C530C1F784E00C
:102AF0008093D501C801880F892F881F990B919564
:102B0000F1E08F27817080933C02E9CF82E08093CF
:102B1000D5016FEF70E0601B710BE6E0759567956E
:102B2000EA95E1F7633008F062E060933702809144
:102B3000B9019091BA010E9403110E945A11CFCF9E
:102B400083E08093D50181E098012078332707FD49
:102B500080E080933A02232B11F21092BB01BFCF89
:102B600086E08093D501C801880F892F881F990BB3
:102B7000919521E08227817080933802B0CF85E063
:102B80008093D501C801880F892F881F990B9195D3
:102B900031E08327817080933B02A1CF87E080934F
:102BA000D501C801880F892F881F990B9195E1E005
:102BB0008E2781708093390292CF2A9A0895259AA0
:102BC000239A2498229A0E94DD15229A0E94DD15EC
:102BD0008DB58E7F8DBD8DB581608DBD80E58CBD41
:102BE0000895EF92FF920F931F93CF93DF93789402
:102BF00084ECE82EF12C87E290E0F701918380834A
:102C000000EC10E0F8011082C1ECD0E088E088838D
:102C100086E08093C200519A599A8AB1806F8AB92E
:102C20008AB1807F8AB98BB18F608BB962E088E707
:102C300090E00E9403111092BB01EAE7F0E080816E
:102C4000876080838081806880831092AF0180914B
:102C5000000180937C0080818064808387E0809382
:102C6000AE0180E6809300010E94B2180E945A11C2
:102C70000E94DF15F80180818D7F80831092C5004E
:102C800087E2F701808388818061888382E0809376
:102C9000B00083E08093B1008DE48093B300E0E75F
:102CA000F0E0808182608083CDB7DEB7E6E00C94EF
:102CB000BC1984B714BE8091600088618093600065
:102CC000109260000E94F1156091370288E790E051
:102CD0000E9403110E940A149091DD018091DE018F
:102CE0009817C1F3E091DD01F0E0E152FE4F8081E1
:102CF0009091C00095FFFCCF8093C6008091DD01CC
:102D000090E001968F7399278093DD01E5CFCF93F3
:102D1000C0912F0280912E029091D20191111BC07F
:102D2000682F60956C234C2F409548238C2F0E9470
:102D3000251280912F0280932E022A98CEBD0DB4C9
:102D400007FEFDCF0E94DD15C11115C088EC8093F0
:102D5000D701CF91089580913802813021F0C87F4A
:102D600040E060E0E3CF80913902882311F0C07F1A
:102D7000F7CFC07CF5CF90912F02892F817090FD05
:102D800088E091FD846092FD82608093D80110926A
:102D9000D701DFCF78941F920F920FB60F921124B4
:102DA0002F933F934F935F936F937F938F939F9353
:102DB000AF93BF93EF93FF938091D9019091DA0184
:102DC000A091DB01B091DC010196A11DB11D8093A2
:102DD000D9019093DA01A093DB01B093DC018091DB
:102DE000CD018F5F8093CD018A3020F00E94621365
:102DF0001092CD010E946F120E94301180912D021D
:102E00008F5F80932D028A3230F080913B028111D6
:102E100002C010922F020E9487160E94BF11FF91DC
:102E2000EF91BF91AF919F918F917F916F915F9142
:102E30004F913F912F910F900FBE0F901F901895BB
:102E4000582F649F90014095549F4095200D311D4F
:102E50001124832F08952091010130910201C901AD
:102E6000817099279195819591098827947B369552
:102E7000279582279327909302018093010108955B
:102E8000EF92FF920F931F93CF93DF93042FE22EC5
:102E900050E026E0559547952A95E1F7AE2DB0E034
:102EA00036E0B595A7953A95E1F790911F02ECE6CB
:102EB000F1E0992331F0E8E0F1E0913011F4EAE338
:102EC000F1E09AE0949F9001959F300D1124AA0F94
:102ED000BB1FA9014A0F5B1F4E0F5F1F265F3F4FAD
:102EE000A20FB31FAE0FBF1F6295660F607E680F03
:102EF00070E0EA01E881F981E60FF71FD491ED91C6
:102F0000FC911197E60FF71F1491FA0182819381CA
:102F1000FC01E60FF71F84911296ED91FC91E60FEC
:102F2000F71F6491000F000F402F0E942017F82E0A
:102F3000402F612F8D2F0E9420174E2D440F440FDC
:102F40006F2D0E942017CDB7DEB7E6E00C94BC19B8
:102F5000B0E0A0E0EEEAF7E10C949B198091350215
:102F6000882309F45BC00091210290902202109204
:102F7000270210922802109229028AE2C82E82E0CB
:102F8000D82E94E2A92E92E0B92E27E2E22E22E07A
:102F9000F22ED0E0C0E011E0292D402F6D2F80915E
:102FA00035020E944017982FF60181916F012FEF93
:102FB00030E0281B3109890F921713060CF08FEFB0
:102FC000F50191915F019095981750F4F701808376
:102FD000813C08F0C12B80912F02812B80932F021E
:102FE000110FDF5FFFEFEF1AFF0AD330A9F6209130
:102FF0002F0280913902882351F190E0C11198E0AD
:10300000922B80913502882301F180E0982B9093D8
:103010002F02CDB7DEB7EBE00C94B719CAE2D2E0CD
:1030200080913C021091230216951695811110E0B3
:103030000E942B1720910201219F112D1124199319
:1030400082E0CD32D80761F78ECF80E2DFCF88E013
:10305000C89FE00111249C2F922BD9CF8F929F9271
:10306000AF92BF92CF92DF92EF92FF92CF93DF9316
:1030700080913502982F917080FD60C060912F0281
:10308000A1E2B2E0C0E3D2E024E232E071E04D918F
:1030900050E0E3E055954795EA95E1F7FF24F39476
:1030A000F40E50E2459FA001112412968C911297C4
:1030B000E82FF0E083E0F595E7958A95E1F7E40FD6
:1030C000F51F88818F1518F08F198883FACFEE0FBE
:1030D000FF1FEE0FFF1FE853FE4E85909590A590C1
:1030E000B490C12CD12C7601C394082E04C0CC0C12
:1030F000DD1CEE1CFF1C0A94D2F7C820D920EA2060
:10310000FB20CD28CE28CF2809F0672B811101C0E4
:10311000972B770F21962A173B0709F0B8CF80919C
:1031200039028823B1F080E0911188E0682B80E0BB
:10313000973009F480E2682B60932F02DF91CF91E2
:10314000FF90EF90DF90CF90BF90AF909F908F90C7
:10315000089528E0929FC0011124962F982B9093F8
:103160002F02ECCF90E080E00E94DA1984FB9927CF
:1031700090F990933A0285FB992790F99093390240
:1031800086FB992790F990933802982F9095991F74
:103190009927991F90933B0283FB992790F921E08F
:1031A000922790933C02982F96708770911182E03D
:1031B0008093370281E090E00E94DA198F5F80935C
:1031C000200282E090E00E94DA19833018F48093A4
:1031D0001F02089510921F02089560913702809196
:1031E0003C02811101C0686080913A0281116061E6
:1031F000809139028111606280913802813009F436
:10320000606480913B02811101C0606890E080E0C1
:103210000E94E219809120028F5F853078F48093BC
:1032200020026091200281E090E00E94E21960910A
:103230001F0282E090E00E94E219089585E0EFCF3E
:1032400010922F0210922D020E942B172091010143
:10325000309102012078332780912F02822B982F02
:10326000906490932F0290913902992319F0806510
:1032700080932F0280913602811109C0809138021B
:10328000811103C00E942E1808950E94A817089566
:1032900080913C02882381F080913802813061F472
:1032A000209123023BE2239F812D1124909135022E
:1032B00091FF03C08195089580E00895F8940C94DF
:1032C000F019A1E21A2EAA1BBB1BFD010DC0AA1FFB
:1032D000BB1FEE1FFF1FA217B307E407F50720F07F
:1032E000A21BB30BE40BF50B661F771F881F991FFA
:1032F0001A9469F760957095809590959B01AC0143
:10330000BD01CF010895EE0FFF1F0590F491E02D50
:1033100009940E94CB19A59F900DB49F900DA49F76
:10332000800D911D112408952F923F924F925F922C
:103330006F927F928F929F92AF92BF92CF92DF92C5
:10334000EF92FF920F931F93CF93DF93CDB7DEB72A
:10335000CA1BDB0B0FB6F894DEBF0FBECDBF0994BE
:103360002A88398848885F846E847D848C849B8415
:10337000AA84B984C884DF80EE80FD800C811B8123
:10338000AA81B981CE0FD11D0FB6F894DEBF0FBE52
:10339000CDBFED010895A29FB001B39FC001A39FCF
:1033A000700D811D1124911DB29F700D811D11247E
:1033B000911D0895F999FECF92BD81BDF89A992784
:1033C00080B50895262FF999FECF1FBA92BD81BD11
:1033D00020BD0FB6F894FA9AF99A0FBE0196089597
:1033E000F894FFCFF8111112081214120B120212E6
:0233F0001712B2
:1033F20040210078FF0603016800C8002801880107
:10340200E8014802A80208036803C80328048804E4
:10341200E8044805A80508066806C80628078807BC
:10342200E8074808A80808096809A805680668099D
:1034320008064805C803C8068804E8042807A80245
:103442002804E80788074808C800680388010809B3
:10345200A808680048020803E80128016809080969
:10346200A8084808E80788072807C8066806080663
:10347200A8054805E80488042804C803680308036B
:0E348200A8024802E80188012801C80068007D
:00000001FF
